{
  "transactions": [
    {
      "hash": "0x4b00a01c28abca4c93fe5d38f9c3b05c9f3f67cf942dbb86b14ff3e3f1905dc8",
      "transactionType": "CALL",
      "contractName": null,
      "contractAddress": "0xb136e5f8ddf6f62d9f4a3d04b1ac1c1dc9399835",
      "function": "mintNFT(string)",
      "arguments": [
        ""
      ],
      "transaction": {
        "from": "0xb769068699eee4b86165b61ea21ec79b1743b89e",
        "to": "0xb136e5f8ddf6f62d9f4a3d04b1ac1c1dc9399835",
        "gas": "0x7ab16",
        "value": "0x0",
        "input": "0xfb37e88300000000000000000000000000000000000000000000000000000000000000200000000000000000000000000000000000000000000000000000000000000000",
        "nonce": "0x25",
        "chainId": "0x1789"
      },
      "additionalContracts": [],
      "isFixedGasLimit": false
    }
  ],
  "receipts": [
    {
      "status": "0x1",
      "cumulativeGasUsed": "0x73c60",
      "logs": [
        {
          "address": "0xb136e5f8ddf6f62d9f4a3d04b1ac1c1dc9399835",
          "topics": [
            "0xddf252ad1be2c89b69c2b068fc378daa952ba7f163c4a11628f55a4df523b3ef",
            "0x0000000000000000000000000000000000000000000000000000000000000000",
            "0x000000000000000000000000b769068699eee4b86165b61ea21ec79b1743b89e",
            "0x0000000000000000000000000000000000000000000000000000000000000001"
          ],
          "data": "0x",
          "blockHash": "0x629b563e73aa1cf6819f6d3f5b03dc2f5f5aeb5abfeab86cb236d0fc862404a4",
          "blockNumber": "0xb1f51",
          "transactionHash": "0x4b00a01c28abca4c93fe5d38f9c3b05c9f3f67cf942dbb86b14ff3e3f1905dc8",
          "transactionIndex": "0x0",
          "logIndex": "0x0",
          "removed": false
        },
        {
          "address": "0xb136e5f8ddf6f62d9f4a3d04b1ac1c1dc9399835",
          "topics": [
            "0xf8e1a15aba9398e019f0b49df1a4fde98ee17ae345cb5f6b5e2c27f5033e8ce7"
          ],
          "data": "0x0000000000000000000000000000000000000000000000000000000000000001",
          "blockHash": "0x629b563e73aa1cf6819f6d3f5b03dc2f5f5aeb5abfeab86cb236d0fc862404a4",
          "blockNumber": "0xb1f51",
          "transactionHash": "0x4b00a01c28abca4c93fe5d38f9c3b05c9f3f67cf942dbb86b14ff3e3f1905dc8",
          "transactionIndex": "0x0",
          "logIndex": "0x1",
          "removed": false
        },
        {
          "address": "0xb136e5f8ddf6f62d9f4a3d04b1ac1c1dc9399835",
          "topics": [
            "0xe7cd4ce7f2a465edc730269a1305e8a48bad821e8fb7e152ec413829c01a53c4",
            "0x000000000000000000000000b769068699eee4b86165b61ea21ec79b1743b89e",
            "0x0000000000000000000000000000000000000000000000000000000000000001"
          ],
          "data": "0x0000000000000000000000000000000000000000000000000000000000000020000000000000000000000000000000000000000000000000000000000000013d646174613a6170706c69636174696f6e2f6a736f6e3b6261736536342c65794a755957316c496a6f6749694e51636d46695953426d636d397449453168626d52686247456751574e685a47567465534d7849697767496d526c63324e796158423061573975496a6f67496b45675932567964476c6d61574e6864475567546b5a554948526f59585167633352315a4756756443426862484a6c5957523549474e76625842735a58526c5a4342306147556759323931636e4e6c49697767496d6c745957646c583356796243493649434a6f64485277637a6f764c326c775a6e4d75615738766158426d6379396959575a72636d56705a33687561476874623256355a7a5632616d5a6a636d78794e486c736457397a6448563464576c326347566f626a633361545631656e513064574d305a5456365a48417961534a39000000",
          "blockHash": "0x629b563e73aa1cf6819f6d3f5b03dc2f5f5aeb5abfeab86cb236d0fc862404a4",
          "blockNumber": "0xb1f51",
          "transactionHash": "0x4b00a01c28abca4c93fe5d38f9c3b05c9f3f67cf942dbb86b14ff3e3f1905dc8",
          "transactionIndex": "0x0",
          "logIndex": "0x2",
          "removed": false
        }
      ],
      "logsBloom": "0x00000000000000000000000000000000000000020000000000000000000000000000000000000000000000000000000000000000000000000040000002040000000000000000000000000008000000000000000000042000000000000000000000000000020000000000000000000800000000000000000002000010000000000000000000000000000000000000000000000000010000000000000000000000000000000000000000000000000000002000000000000000000000000000008000000002000000000000000000000000000008000000000000000200000060000000000000000000200000000000000000000000000000080000000000000000",
      "type": "0x2",
      "transactionHash": "0x4b00a01c28abca4c93fe5d38f9c3b05c9f3f67cf942dbb86b14ff3e3f1905dc8",
      "transactionIndex": "0x0",
      "blockHash": "0x629b563e73aa1cf6819f6d3f5b03dc2f5f5aeb5abfeab86cb236d0fc862404a4",
      "blockNumber": "0xb1f51",
      "gasUsed": "0x73c60",
      "effectiveGasPrice": "0x1dcd6501",
      "from": "0xb769068699eee4b86165b61ea21ec79b1743b89e",
      "to": "0xb136e5f8ddf6f62d9f4a3d04b1ac1c1dc9399835",
      "contractAddress": null
    }
  ],
  "libraries": [],
  "pending": [],
  "returns": {},
  "timestamp": 1740172386,
  "chain": 6025,
  "commit": "b0b9477"
}